{
  "_format": "hh-sol-artifact-1",
  "contractName": "DTube",
  "sourceName": "contracts/DTube.sol",
  "abi": [
    {
      "inputs": [],
      "stateMutability": "nonpayable",
      "type": "constructor"
    },
    {
      "anonymous": false,
      "inputs": [
        {
          "indexed": false,
          "internalType": "uint256",
          "name": "id",
          "type": "uint256"
        },
        {
          "indexed": false,
          "internalType": "string",
          "name": "imageIpfsHash",
          "type": "string"
        },
        {
          "indexed": false,
          "internalType": "string",
          "name": "title",
          "type": "string"
        },
        {
          "indexed": false,
          "internalType": "address",
          "name": "author",
          "type": "address"
        }
      ],
      "name": "ImageUploaded",
      "type": "event"
    },
    {
      "anonymous": false,
      "inputs": [
        {
          "indexed": false,
          "internalType": "address",
          "name": "receiver",
          "type": "address"
        },
        {
          "indexed": false,
          "internalType": "address",
          "name": "sender",
          "type": "address"
        },
        {
          "indexed": false,
          "internalType": "uint256",
          "name": "amount",
          "type": "uint256"
        }
      ],
      "name": "SendEthToAuthor",
      "type": "event"
    },
    {
      "anonymous": false,
      "inputs": [
        {
          "indexed": false,
          "internalType": "uint256",
          "name": "id",
          "type": "uint256"
        },
        {
          "indexed": false,
          "internalType": "string",
          "name": "videoIpfsHash",
          "type": "string"
        },
        {
          "indexed": false,
          "internalType": "string",
          "name": "title",
          "type": "string"
        },
        {
          "indexed": false,
          "internalType": "address",
          "name": "author",
          "type": "address"
        }
      ],
      "name": "VideoUploaded",
      "type": "event"
    },
    {
      "inputs": [],
      "name": "imageCount",
      "outputs": [
        {
          "internalType": "uint256",
          "name": "",
          "type": "uint256"
        }
      ],
      "stateMutability": "view",
      "type": "function"
    },
    {
      "inputs": [
        {
          "internalType": "uint256",
          "name": "",
          "type": "uint256"
        }
      ],
      "name": "images",
      "outputs": [
        {
          "internalType": "uint256",
          "name": "id",
          "type": "uint256"
        },
        {
          "internalType": "string",
          "name": "imageIpfsHash",
          "type": "string"
        },
        {
          "internalType": "string",
          "name": "title",
          "type": "string"
        },
        {
          "internalType": "address",
          "name": "author",
          "type": "address"
        }
      ],
      "stateMutability": "view",
      "type": "function"
    },
    {
      "inputs": [],
      "name": "name",
      "outputs": [
        {
          "internalType": "string",
          "name": "",
          "type": "string"
        }
      ],
      "stateMutability": "view",
      "type": "function"
    },
    {
      "inputs": [
        {
          "internalType": "address payable",
          "name": "_to",
          "type": "address"
        }
      ],
      "name": "sendEthToAuthor",
      "outputs": [],
      "stateMutability": "payable",
      "type": "function"
    },
    {
      "inputs": [
        {
          "internalType": "string",
          "name": "_imageIpfsHash",
          "type": "string"
        },
        {
          "internalType": "string",
          "name": "_title",
          "type": "string"
        }
      ],
      "name": "uploadImage",
      "outputs": [],
      "stateMutability": "nonpayable",
      "type": "function"
    },
    {
      "inputs": [
        {
          "internalType": "string",
          "name": "_videoIpfsHash",
          "type": "string"
        },
        {
          "internalType": "string",
          "name": "_title",
          "type": "string"
        }
      ],
      "name": "uploadVideo",
      "outputs": [],
      "stateMutability": "nonpayable",
      "type": "function"
    },
    {
      "inputs": [],
      "name": "videoCount",
      "outputs": [
        {
          "internalType": "uint256",
          "name": "",
          "type": "uint256"
        }
      ],
      "stateMutability": "view",
      "type": "function"
    },
    {
      "inputs": [
        {
          "internalType": "uint256",
          "name": "",
          "type": "uint256"
        }
      ],
      "name": "videos",
      "outputs": [
        {
          "internalType": "uint256",
          "name": "id",
          "type": "uint256"
        },
        {
          "internalType": "string",
          "name": "videoIpfsHash",
          "type": "string"
        },
        {
          "internalType": "string",
          "name": "title",
          "type": "string"
        },
        {
          "internalType": "address",
          "name": "author",
          "type": "address"
        }
      ],
      "stateMutability": "view",
      "type": "function"
    }
  ],
  "bytecode": "0x60806040526000805560006001556040518060400160405280600581526020017f445475626500000000000000000000000000000000000000000000000000000081525060029081620000539190620002e2565b503480156200006157600080fd5b50620003c9565b600081519050919050565b7f4e487b7100000000000000000000000000000000000000000000000000000000600052604160045260246000fd5b7f4e487b7100000000000000000000000000000000000000000000000000000000600052602260045260246000fd5b60006002820490506001821680620000ea57607f821691505b6020821081036200010057620000ff620000a2565b5b50919050565b60008190508160005260206000209050919050565b60006020601f8301049050919050565b600082821b905092915050565b6000600883026200016a7fffffffffffffffffffffffffffffffffffffffffffffffffffffffffffffffff826200012b565b6200017686836200012b565b95508019841693508086168417925050509392505050565b6000819050919050565b6000819050919050565b6000620001c3620001bd620001b7846200018e565b62000198565b6200018e565b9050919050565b6000819050919050565b620001df83620001a2565b620001f7620001ee82620001ca565b84845462000138565b825550505050565b600090565b6200020e620001ff565b6200021b818484620001d4565b505050565b5b8181101562000243576200023760008262000204565b60018101905062000221565b5050565b601f82111562000292576200025c8162000106565b62000267846200011b565b8101602085101562000277578190505b6200028f62000286856200011b565b83018262000220565b50505b505050565b600082821c905092915050565b6000620002b76000198460080262000297565b1980831691505092915050565b6000620002d28383620002a4565b9150826002028217905092915050565b620002ed8262000068565b67ffffffffffffffff81111562000309576200030862000073565b5b620003158254620000d1565b6200032282828562000247565b600060209050601f8311600181146200035a576000841562000345578287015190505b620003518582620002c4565b865550620003c1565b601f1984166200036a8662000106565b60005b8281101562000394578489015182556001820191506020850194506020810190506200036d565b86831015620003b45784890151620003b0601f891682620002a4565b8355505b6001600288020188555050505b505050505050565b61111680620003d96000396000f3fe60806040526004361061007a5760003560e01c806392053b631161004e57806392053b631461012f578063a91b83141461015a578063c61b5f4c14610183578063e6821bf5146101ae5761007a565b80621bc45c1461007f57806306fdde031461009b57806384856482146100c65780638a5447c514610106575b600080fd5b61009960048036038101906100949190610972565b6101ee565b005b3480156100a757600080fd5b506100b06102ac565b6040516100bd9190610a2f565b60405180910390f35b3480156100d257600080fd5b506100ed60048036038101906100e89190610a87565b61033a565b6040516100fd9493929190610ae4565b60405180910390f35b34801561011257600080fd5b5061012d60048036038101906101289190610c6c565b61049a565b005b34801561013b57600080fd5b50610144610616565b6040516101519190610ce4565b60405180910390f35b34801561016657600080fd5b50610181600480360381019061017c9190610c6c565b61061c565b005b34801561018f57600080fd5b5061019861079a565b6040516101a59190610ce4565b60405180910390f35b3480156101ba57600080fd5b506101d560048036038101906101d09190610a87565b6107a0565b6040516101e59493929190610ae4565b60405180910390f35b600073ffffffffffffffffffffffffffffffffffffffff168173ffffffffffffffffffffffffffffffffffffffff160361022757600080fd5b8073ffffffffffffffffffffffffffffffffffffffff166108fc349081150290604051600060405180830381858888f1935050505015801561026d573d6000803e3d6000fd5b507f5b018ec8dfb30adc6f530ca9546eddf53562206030004d7ae747d177bf1cd8608133346040516102a193929190610d5e565b60405180910390a150565b600280546102b990610dc4565b80601f01602080910402602001604051908101604052809291908181526020018280546102e590610dc4565b80156103325780601f1061030757610100808354040283529160200191610332565b820191906000526020600020905b81548152906001019060200180831161031557829003601f168201915b505050505081565b600460205280600052604060002060009150905080600001549080600101805461036390610dc4565b80601f016020809104026020016040519081016040528092919081815260200182805461038f90610dc4565b80156103dc5780601f106103b1576101008083540402835291602001916103dc565b820191906000526020600020905b8154815290600101906020018083116103bf57829003601f168201915b5050505050908060020180546103f190610dc4565b80601f016020809104026020016040519081016040528092919081815260200182805461041d90610dc4565b801561046a5780601f1061043f5761010080835404028352916020019161046a565b820191906000526020600020905b81548152906001019060200180831161044d57829003601f168201915b5050505050908060030160009054906101000a900473ffffffffffffffffffffffffffffffffffffffff16905084565b60008251116104a857600080fd5b60008151116104b657600080fd5b600073ffffffffffffffffffffffffffffffffffffffff163373ffffffffffffffffffffffffffffffffffffffff16036104ef57600080fd5b60008081548092919061050190610e24565b9190505550604051806080016040528060005481526020018381526020018281526020013373ffffffffffffffffffffffffffffffffffffffff168152506003600080548152602001908152602001600020600082015181600001556020820151816001019081610572919061100e565b506040820151816002019081610588919061100e565b5060608201518160030160006101000a81548173ffffffffffffffffffffffffffffffffffffffff021916908373ffffffffffffffffffffffffffffffffffffffff1602179055509050507f2c44b862f4b4e08a26a765f9499900759a9ec95360a6f174d53163bd5d367f6760005483833360405161060a9493929190610ae4565b60405180910390a15050565b60015481565b600082511161062a57600080fd5b600081511161063857600080fd5b600073ffffffffffffffffffffffffffffffffffffffff163373ffffffffffffffffffffffffffffffffffffffff160361067157600080fd5b6001600081548092919061068490610e24565b9190505550604051806080016040528060015481526020018381526020018281526020013373ffffffffffffffffffffffffffffffffffffffff168152506004600060015481526020019081526020016000206000820151816000015560208201518160010190816106f6919061100e565b50604082015181600201908161070c919061100e565b5060608201518160030160006101000a81548173ffffffffffffffffffffffffffffffffffffffff021916908373ffffffffffffffffffffffffffffffffffffffff1602179055509050507fda2401c4b004175413cd23bba3c971b53de5c9d4a59698fc9cd5cc86d6592eed60015483833360405161078e9493929190610ae4565b60405180910390a15050565b60005481565b60036020528060005260406000206000915090508060000154908060010180546107c990610dc4565b80601f01602080910402602001604051908101604052809291908181526020018280546107f590610dc4565b80156108425780601f1061081757610100808354040283529160200191610842565b820191906000526020600020905b81548152906001019060200180831161082557829003601f168201915b50505050509080600201805461085790610dc4565b80601f016020809104026020016040519081016040528092919081815260200182805461088390610dc4565b80156108d05780601f106108a5576101008083540402835291602001916108d0565b820191906000526020600020905b8154815290600101906020018083116108b357829003601f168201915b5050505050908060030160009054906101000a900473ffffffffffffffffffffffffffffffffffffffff16905084565b6000604051905090565b600080fd5b600080fd5b600073ffffffffffffffffffffffffffffffffffffffff82169050919050565b600061093f82610914565b9050919050565b61094f81610934565b811461095a57600080fd5b50565b60008135905061096c81610946565b92915050565b6000602082840312156109885761098761090a565b5b60006109968482850161095d565b91505092915050565b600081519050919050565b600082825260208201905092915050565b60005b838110156109d95780820151818401526020810190506109be565b60008484015250505050565b6000601f19601f8301169050919050565b6000610a018261099f565b610a0b81856109aa565b9350610a1b8185602086016109bb565b610a24816109e5565b840191505092915050565b60006020820190508181036000830152610a4981846109f6565b905092915050565b6000819050919050565b610a6481610a51565b8114610a6f57600080fd5b50565b600081359050610a8181610a5b565b92915050565b600060208284031215610a9d57610a9c61090a565b5b6000610aab84828501610a72565b91505092915050565b610abd81610a51565b82525050565b6000610ace82610914565b9050919050565b610ade81610ac3565b82525050565b6000608082019050610af96000830187610ab4565b8181036020830152610b0b81866109f6565b90508181036040830152610b1f81856109f6565b9050610b2e6060830184610ad5565b95945050505050565b600080fd5b600080fd5b7f4e487b7100000000000000000000000000000000000000000000000000000000600052604160045260246000fd5b610b79826109e5565b810181811067ffffffffffffffff82111715610b9857610b97610b41565b5b80604052505050565b6000610bab610900565b9050610bb78282610b70565b919050565b600067ffffffffffffffff821115610bd757610bd6610b41565b5b610be0826109e5565b9050602081019050919050565b82818337600083830152505050565b6000610c0f610c0a84610bbc565b610ba1565b905082815260208101848484011115610c2b57610c2a610b3c565b5b610c36848285610bed565b509392505050565b600082601f830112610c5357610c52610b37565b5b8135610c63848260208601610bfc565b91505092915050565b60008060408385031215610c8357610c8261090a565b5b600083013567ffffffffffffffff811115610ca157610ca061090f565b5b610cad85828601610c3e565b925050602083013567ffffffffffffffff811115610cce57610ccd61090f565b5b610cda85828601610c3e565b9150509250929050565b6000602082019050610cf96000830184610ab4565b92915050565b6000819050919050565b6000610d24610d1f610d1a84610914565b610cff565b610914565b9050919050565b6000610d3682610d09565b9050919050565b6000610d4882610d2b565b9050919050565b610d5881610d3d565b82525050565b6000606082019050610d736000830186610d4f565b610d806020830185610ad5565b610d8d6040830184610ab4565b949350505050565b7f4e487b7100000000000000000000000000000000000000000000000000000000600052602260045260246000fd5b60006002820490506001821680610ddc57607f821691505b602082108103610def57610dee610d95565b5b50919050565b7f4e487b7100000000000000000000000000000000000000000000000000000000600052601160045260246000fd5b6000610e2f82610a51565b91507fffffffffffffffffffffffffffffffffffffffffffffffffffffffffffffffff8203610e6157610e60610df5565b5b600182019050919050565b60008190508160005260206000209050919050565b60006020601f8301049050919050565b600082821b905092915050565b600060088302610ece7fffffffffffffffffffffffffffffffffffffffffffffffffffffffffffffffff82610e91565b610ed88683610e91565b95508019841693508086168417925050509392505050565b6000610f0b610f06610f0184610a51565b610cff565b610a51565b9050919050565b6000819050919050565b610f2583610ef0565b610f39610f3182610f12565b848454610e9e565b825550505050565b600090565b610f4e610f41565b610f59818484610f1c565b505050565b5b81811015610f7d57610f72600082610f46565b600181019050610f5f565b5050565b601f821115610fc257610f9381610e6c565b610f9c84610e81565b81016020851015610fab578190505b610fbf610fb785610e81565b830182610f5e565b50505b505050565b600082821c905092915050565b6000610fe560001984600802610fc7565b1980831691505092915050565b6000610ffe8383610fd4565b9150826002028217905092915050565b6110178261099f565b67ffffffffffffffff8111156110305761102f610b41565b5b61103a8254610dc4565b611045828285610f81565b600060209050601f8311600181146110785760008415611066578287015190505b6110708582610ff2565b8655506110d8565b601f19841661108686610e6c565b60005b828110156110ae57848901518255600182019150602085019450602081019050611089565b868310156110cb57848901516110c7601f891682610fd4565b8355505b6001600288020188555050505b50505050505056fea2646970667358221220eb32a45311fe4019847e634ac121d09591ef35e1a06866601f5b2542a6a8735664736f6c63430008110033",
  "linkReferences": {},
  "deployedLinkReferences": {}
}