{
  "_format": "hh-sol-artifact-1",
  "contractName": "DTube",
  "sourceName": "contracts/DTube.sol",
  "abi": [
    {
      "inputs": [],
      "stateMutability": "nonpayable",
      "type": "constructor"
    },
    {
      "anonymous": false,
      "inputs": [
        {
          "indexed": false,
          "internalType": "uint256",
          "name": "id",
          "type": "uint256"
        },
        {
          "indexed": false,
          "internalType": "string",
          "name": "imageIpfsHash",
          "type": "string"
        },
        {
          "indexed": false,
          "internalType": "string",
          "name": "title",
          "type": "string"
        },
        {
          "indexed": false,
          "internalType": "address",
          "name": "author",
          "type": "address"
        }
      ],
      "name": "ImageUploaded",
      "type": "event"
    },
    {
      "anonymous": false,
      "inputs": [
        {
          "indexed": false,
          "internalType": "uint256",
          "name": "id",
          "type": "uint256"
        },
        {
          "indexed": false,
          "internalType": "string",
          "name": "videoIpfsHash",
          "type": "string"
        },
        {
          "indexed": false,
          "internalType": "string",
          "name": "title",
          "type": "string"
        },
        {
          "indexed": false,
          "internalType": "address",
          "name": "author",
          "type": "address"
        }
      ],
      "name": "VideoUploaded",
      "type": "event"
    },
    {
      "inputs": [],
      "name": "imageCount",
      "outputs": [
        {
          "internalType": "uint256",
          "name": "",
          "type": "uint256"
        }
      ],
      "stateMutability": "view",
      "type": "function"
    },
    {
      "inputs": [
        {
          "internalType": "uint256",
          "name": "",
          "type": "uint256"
        }
      ],
      "name": "images",
      "outputs": [
        {
          "internalType": "uint256",
          "name": "id",
          "type": "uint256"
        },
        {
          "internalType": "string",
          "name": "imageIpfsHash",
          "type": "string"
        },
        {
          "internalType": "string",
          "name": "title",
          "type": "string"
        },
        {
          "internalType": "address",
          "name": "author",
          "type": "address"
        }
      ],
      "stateMutability": "view",
      "type": "function"
    },
    {
      "inputs": [],
      "name": "name",
      "outputs": [
        {
          "internalType": "string",
          "name": "",
          "type": "string"
        }
      ],
      "stateMutability": "view",
      "type": "function"
    },
    {
      "inputs": [
        {
          "internalType": "string",
          "name": "_imageIpfsHash",
          "type": "string"
        },
        {
          "internalType": "string",
          "name": "_title",
          "type": "string"
        }
      ],
      "name": "uploadImage",
      "outputs": [],
      "stateMutability": "nonpayable",
      "type": "function"
    },
    {
      "inputs": [
        {
          "internalType": "string",
          "name": "_videoIpfsHash",
          "type": "string"
        },
        {
          "internalType": "string",
          "name": "_title",
          "type": "string"
        }
      ],
      "name": "uploadVideo",
      "outputs": [],
      "stateMutability": "nonpayable",
      "type": "function"
    },
    {
      "inputs": [],
      "name": "videoCount",
      "outputs": [
        {
          "internalType": "uint256",
          "name": "",
          "type": "uint256"
        }
      ],
      "stateMutability": "view",
      "type": "function"
    },
    {
      "inputs": [
        {
          "internalType": "uint256",
          "name": "",
          "type": "uint256"
        }
      ],
      "name": "videos",
      "outputs": [
        {
          "internalType": "uint256",
          "name": "id",
          "type": "uint256"
        },
        {
          "internalType": "string",
          "name": "videoIpfsHash",
          "type": "string"
        },
        {
          "internalType": "string",
          "name": "title",
          "type": "string"
        },
        {
          "internalType": "address",
          "name": "author",
          "type": "address"
        }
      ],
      "stateMutability": "view",
      "type": "function"
    }
  ],
  "bytecode": "0x60806040526000805560006001556040518060400160405280600581526020017f445475626500000000000000000000000000000000000000000000000000000081525060029081620000539190620002e2565b503480156200006157600080fd5b50620003c9565b600081519050919050565b7f4e487b7100000000000000000000000000000000000000000000000000000000600052604160045260246000fd5b7f4e487b7100000000000000000000000000000000000000000000000000000000600052602260045260246000fd5b60006002820490506001821680620000ea57607f821691505b6020821081036200010057620000ff620000a2565b5b50919050565b60008190508160005260206000209050919050565b60006020601f8301049050919050565b600082821b905092915050565b6000600883026200016a7fffffffffffffffffffffffffffffffffffffffffffffffffffffffffffffffff826200012b565b6200017686836200012b565b95508019841693508086168417925050509392505050565b6000819050919050565b6000819050919050565b6000620001c3620001bd620001b7846200018e565b62000198565b6200018e565b9050919050565b6000819050919050565b620001df83620001a2565b620001f7620001ee82620001ca565b84845462000138565b825550505050565b600090565b6200020e620001ff565b6200021b818484620001d4565b505050565b5b8181101562000243576200023760008262000204565b60018101905062000221565b5050565b601f82111562000292576200025c8162000106565b62000267846200011b565b8101602085101562000277578190505b6200028f62000286856200011b565b83018262000220565b50505b505050565b600082821c905092915050565b6000620002b76000198460080262000297565b1980831691505092915050565b6000620002d28383620002a4565b9150826002028217905092915050565b620002ed8262000068565b67ffffffffffffffff81111562000309576200030862000073565b5b620003158254620000d1565b6200032282828562000247565b600060209050601f8311600181146200035a576000841562000345578287015190505b620003518582620002c4565b865550620003c1565b601f1984166200036a8662000106565b60005b8281101562000394578489015182556001820191506020850194506020810190506200036d565b86831015620003b45784890151620003b0601f891682620002a4565b8355505b6001600288020188555050505b505050505050565b610eed80620003d96000396000f3fe608060405234801561001057600080fd5b506004361061007d5760003560e01c806392053b631161005b57806392053b63146100ef578063a91b83141461010d578063c61b5f4c14610129578063e6821bf5146101475761007d565b806306fdde031461008257806384856482146100a05780638a5447c5146100d3575b600080fd5b61008a61017a565b604051610097919061085e565b60405180910390f35b6100ba60048036038101906100b591906108ca565b610208565b6040516100ca9493929190610947565b60405180910390f35b6100ed60048036038101906100e89190610acf565b610368565b005b6100f76104e4565b6040516101049190610b47565b60405180910390f35b61012760048036038101906101229190610acf565b6104ea565b005b610131610668565b60405161013e9190610b47565b60405180910390f35b610161600480360381019061015c91906108ca565b61066e565b6040516101719493929190610947565b60405180910390f35b6002805461018790610b91565b80601f01602080910402602001604051908101604052809291908181526020018280546101b390610b91565b80156102005780601f106101d557610100808354040283529160200191610200565b820191906000526020600020905b8154815290600101906020018083116101e357829003601f168201915b505050505081565b600460205280600052604060002060009150905080600001549080600101805461023190610b91565b80601f016020809104026020016040519081016040528092919081815260200182805461025d90610b91565b80156102aa5780601f1061027f576101008083540402835291602001916102aa565b820191906000526020600020905b81548152906001019060200180831161028d57829003601f168201915b5050505050908060020180546102bf90610b91565b80601f01602080910402602001604051908101604052809291908181526020018280546102eb90610b91565b80156103385780601f1061030d57610100808354040283529160200191610338565b820191906000526020600020905b81548152906001019060200180831161031b57829003601f168201915b5050505050908060030160009054906101000a900473ffffffffffffffffffffffffffffffffffffffff16905084565b600082511161037657600080fd5b600081511161038457600080fd5b600073ffffffffffffffffffffffffffffffffffffffff163373ffffffffffffffffffffffffffffffffffffffff16036103bd57600080fd5b6000808154809291906103cf90610bf1565b9190505550604051806080016040528060005481526020018381526020018281526020013373ffffffffffffffffffffffffffffffffffffffff1681525060036000805481526020019081526020016000206000820151816000015560208201518160010190816104409190610de5565b5060408201518160020190816104569190610de5565b5060608201518160030160006101000a81548173ffffffffffffffffffffffffffffffffffffffff021916908373ffffffffffffffffffffffffffffffffffffffff1602179055509050507f2c44b862f4b4e08a26a765f9499900759a9ec95360a6f174d53163bd5d367f676000548383336040516104d89493929190610947565b60405180910390a15050565b60015481565b60008251116104f857600080fd5b600081511161050657600080fd5b600073ffffffffffffffffffffffffffffffffffffffff163373ffffffffffffffffffffffffffffffffffffffff160361053f57600080fd5b6001600081548092919061055290610bf1565b9190505550604051806080016040528060015481526020018381526020018281526020013373ffffffffffffffffffffffffffffffffffffffff168152506004600060015481526020019081526020016000206000820151816000015560208201518160010190816105c49190610de5565b5060408201518160020190816105da9190610de5565b5060608201518160030160006101000a81548173ffffffffffffffffffffffffffffffffffffffff021916908373ffffffffffffffffffffffffffffffffffffffff1602179055509050507fda2401c4b004175413cd23bba3c971b53de5c9d4a59698fc9cd5cc86d6592eed60015483833360405161065c9493929190610947565b60405180910390a15050565b60005481565b600360205280600052604060002060009150905080600001549080600101805461069790610b91565b80601f01602080910402602001604051908101604052809291908181526020018280546106c390610b91565b80156107105780601f106106e557610100808354040283529160200191610710565b820191906000526020600020905b8154815290600101906020018083116106f357829003601f168201915b50505050509080600201805461072590610b91565b80601f016020809104026020016040519081016040528092919081815260200182805461075190610b91565b801561079e5780601f106107735761010080835404028352916020019161079e565b820191906000526020600020905b81548152906001019060200180831161078157829003601f168201915b5050505050908060030160009054906101000a900473ffffffffffffffffffffffffffffffffffffffff16905084565b600081519050919050565b600082825260208201905092915050565b60005b838110156108085780820151818401526020810190506107ed565b60008484015250505050565b6000601f19601f8301169050919050565b6000610830826107ce565b61083a81856107d9565b935061084a8185602086016107ea565b61085381610814565b840191505092915050565b600060208201905081810360008301526108788184610825565b905092915050565b6000604051905090565b600080fd5b600080fd5b6000819050919050565b6108a781610894565b81146108b257600080fd5b50565b6000813590506108c48161089e565b92915050565b6000602082840312156108e0576108df61088a565b5b60006108ee848285016108b5565b91505092915050565b61090081610894565b82525050565b600073ffffffffffffffffffffffffffffffffffffffff82169050919050565b600061093182610906565b9050919050565b61094181610926565b82525050565b600060808201905061095c60008301876108f7565b818103602083015261096e8186610825565b905081810360408301526109828185610825565b90506109916060830184610938565b95945050505050565b600080fd5b600080fd5b7f4e487b7100000000000000000000000000000000000000000000000000000000600052604160045260246000fd5b6109dc82610814565b810181811067ffffffffffffffff821117156109fb576109fa6109a4565b5b80604052505050565b6000610a0e610880565b9050610a1a82826109d3565b919050565b600067ffffffffffffffff821115610a3a57610a396109a4565b5b610a4382610814565b9050602081019050919050565b82818337600083830152505050565b6000610a72610a6d84610a1f565b610a04565b905082815260208101848484011115610a8e57610a8d61099f565b5b610a99848285610a50565b509392505050565b600082601f830112610ab657610ab561099a565b5b8135610ac6848260208601610a5f565b91505092915050565b60008060408385031215610ae657610ae561088a565b5b600083013567ffffffffffffffff811115610b0457610b0361088f565b5b610b1085828601610aa1565b925050602083013567ffffffffffffffff811115610b3157610b3061088f565b5b610b3d85828601610aa1565b9150509250929050565b6000602082019050610b5c60008301846108f7565b92915050565b7f4e487b7100000000000000000000000000000000000000000000000000000000600052602260045260246000fd5b60006002820490506001821680610ba957607f821691505b602082108103610bbc57610bbb610b62565b5b50919050565b7f4e487b7100000000000000000000000000000000000000000000000000000000600052601160045260246000fd5b6000610bfc82610894565b91507fffffffffffffffffffffffffffffffffffffffffffffffffffffffffffffffff8203610c2e57610c2d610bc2565b5b600182019050919050565b60008190508160005260206000209050919050565b60006020601f8301049050919050565b600082821b905092915050565b600060088302610c9b7fffffffffffffffffffffffffffffffffffffffffffffffffffffffffffffffff82610c5e565b610ca58683610c5e565b95508019841693508086168417925050509392505050565b6000819050919050565b6000610ce2610cdd610cd884610894565b610cbd565b610894565b9050919050565b6000819050919050565b610cfc83610cc7565b610d10610d0882610ce9565b848454610c6b565b825550505050565b600090565b610d25610d18565b610d30818484610cf3565b505050565b5b81811015610d5457610d49600082610d1d565b600181019050610d36565b5050565b601f821115610d9957610d6a81610c39565b610d7384610c4e565b81016020851015610d82578190505b610d96610d8e85610c4e565b830182610d35565b50505b505050565b600082821c905092915050565b6000610dbc60001984600802610d9e565b1980831691505092915050565b6000610dd58383610dab565b9150826002028217905092915050565b610dee826107ce565b67ffffffffffffffff811115610e0757610e066109a4565b5b610e118254610b91565b610e1c828285610d58565b600060209050601f831160018114610e4f5760008415610e3d578287015190505b610e478582610dc9565b865550610eaf565b601f198416610e5d86610c39565b60005b82811015610e8557848901518255600182019150602085019450602081019050610e60565b86831015610ea25784890151610e9e601f891682610dab565b8355505b6001600288020188555050505b50505050505056fea26469706673582212202fd3147044b009e44028adb63fb5c695e818f02157f8aa3b4e79e4f0a80d1a1b64736f6c63430008110033",
  "linkReferences": {},
  "deployedLinkReferences": {}
}